:100000000C943A000C9457000C9457000C94570031
:100010000C9457000C9457000C9457000C94570004
:100020000C9457000C9457000C9457000C945700F4
:100030000C9457000C9457000C9457000C945700E4
:100040000C9457000C9457000C9457000C945700D4
:100050000C9457000C9457000C9457000C945700C4
:100060000C9457000C9457000C9457000C945700B4
:100070000C94570011241FBECFEFD4E0DEBFCDBFDC
:1000800013E0A0E0B1E0EEE2FFE002C005900D92C7
:10009000A635B107D9F723E0A6E5B3E001C01D926C
:1000A000A237B207E1F70E9478060C9495070C94EA
:1000B00000000C9493010C94B4010C9499010C94DD
:1000C0009F010C94A5010E94A5010E949F01882315
:1000D000E1F38CE291E00197F1F70E949301811125
:1000E0000C945B0008950C94BB01CF93DF9300D078
:1000F0001F92CDB7DEB78091180390911903A0919C
:100100001A0389839A83AB83509A589A0E94660196
:100110008FE690E00E94FD0081E090E00E94550192
:1001200061E070E081E090E00E9442010E942E01B7
:10013000CE0101960E947B010F900F900F90DF91EE
:10014000CF910895CF93DF93DC01FB0160E080E065
:10015000C1E0D0E0841305C0F9016083DF91CF9145
:1001600008959191BE01092E02C0660F771F0A946F
:10017000E2F76F5F7F4F769567956A0F7B1F02C02E
:10018000769567959A95E2F76F3F710529F320F30D
:100190008F5FE0CFE1E6F0E080E880831082A895F1
:1001A00084B7877F84BFE0E6F0E080818861808348
:1001B000108208951092800084E080938100109254
:1001C00085001092840008958091840090918500AC
:1001D0000895AC0180918400909185009C01241BBE
:1001E000350B283E3340B0F70895209184003091BC
:1001F0008500820F931F0C94E900CF93DF931F9229
:10020000CDB7DEB79E012F5F3F4F45E06BE173E056
:100210000E94A20091E0980F909300019981915063
:1002200097BD18BC95B5977039F025B59091000130
:100230009770287F922B95BD298130E0E82FF0E060
:10024000E55EFC4F8081A90102C0440F551F8A95CD
:10025000E2F7CA010F90DF91CF91089585B3897FAE
:1002600085BB95B5809100018770987F892B85BDEE
:10027000089585B5887F85BD089585B382FB88275D
:1002800080F90895009719F0019751F0089584B509
:100290008F736295660F660F607C682B64BD08954E
:1002A00084B5629560738F7CF8CF009721F0019739
:1002B00039F080E0089584B58C7F84BD81E0089595
:1002C00084B58E7F84BD84B58260F7CF14BC15BC25
:1002D00016BC18BC84B58E7F84BD84B5826084BD95
:1002E00081E008959C01215031093093CD00815067
:1002F0008093CC000895CF93DF93EC01888199819E
:100300000E9472018A819BEF980F943008F088E078
:1003100098E19093C9008550880F8093CA0081E0CE
:10032000DF91CF9108958091C800881F8827881F8A
:1003300008958091C80085FB882780F908958091F1
:10034000C80086FB882780F90895CF93C82F0E94A4
:1003500099018823E1F38091C80080648093C800EC
:10036000C093CE00CF9108958091C80087FFFCCF45
:100370008091CE000895CF93DF93EC018991811194
:1003800003C0DF91CF9108950E94A501F7CF85307A
:1003900098F4673088F421E030E001C0220F6A95BC
:1003A000EAF7E82FF0E0E45AFC4F822F8095908125
:1003B00089234111822B80830895853080F4673032
:1003C00070F4E82FF0E0E45AFC4F81E090E001C0C7
:1003D000880F6A95EAF79081982381E009F480E01C
:1003E000089560915B03E62FF0E0E45AFC4F8081B2
:1003F0000E943F0280915B038F5F853018F48093E9
:100400005B03089510925B030895ECE5F3E010821E
:10041000118212821382148208950E941D020C948C
:1004200005029C01FC01FF2784A1832B84A395A1D5
:10043000892F832B85A381E00895CF93DF93CAE2B0
:10044000D3E0899199910E94110283E0C833D807C3
:10045000C1F783E090E40E94110280E090E80E94DE
:10046000110283E090E10E94110283E090E80E9473
:10047000110283E090E2DF91CF910C941102E091A0
:100480006103F0E0EE0FFF1FE05EFC4F2081318141
:10049000F901FF2795A1932B95A3AAE2B3E02D9133
:1004A0003D91F901FF2780FF1CC025A1932F909556
:1004B000922395A3869593E0A833B90781F7E62F99
:1004C000F0E0EE0FFF1FE05EFC4F20813181F9016B
:1004D000FF2795A1832F8095892385A360936103CE
:1004E000089595A1932BE5CF6230710559F128F459
:1004F00061307105E1F080E008956330710559F0D5
:1005000064307105C1F7FC01FF2784A1892B84A306
:1005100085A1892B09C0FC01FF2784A1892B84A315
:1005200025A1892F8095822385A381E00895FC0170
:10053000FF2724A1892F8095922F982394A395A11A
:100540008923F2CFFC01FF2724A1892F80958223E4
:10055000DECFE82FF0E0EE0FFF1FEE59FC4F808159
:10056000882329F0818191E089278170089580E0B6
:10057000FCCFE82FF0E0EE0FFF1FEE59FC4F80811B
:10058000811103C081818170089580E0FCCFE82F44
:10059000F0E0EE0FFF1FEE59FC4F80810895E82F29
:1005A000F0E0EE0FFF1FEE59FC4F908181E08927AC
:1005B00008957F928F929F92AF92BF92CF92DF92D7
:1005C000EF92FF920F931F93CF93DF93C2E6D3E096
:1005D00058E3C52E53E0D52E66E0762E88818983B8
:1005E000F601019111916F015801BB24F50124A17D
:1005F000E12EFF2485A190E08E219F2130E02E2165
:100600003F21232BB1F133E0832E912C892B19F05C
:1006100094E0892E912C64E070E0C8010E9474027D
:1006200062E070E0C8010E947402872D8A95F1F79C
:10063000F50183A190E0E822F92281E0EF2809F09A
:1006400080E08883B401C8010E9474022296F3E01E
:10065000CC36DF0719F6DF91CF911F910F91FF90F4
:10066000EF90DF90CF90BF90AF909F908F907F9052
:10067000089588248394912C892B69F282E0882E36
:10068000912CC9CF0895009789F0FC012381621B4A
:1006900067FD09C0062E000C770B948181E0961748
:1006A000170609F00CF480E08170089580E0089549
:1006B000FC01892B71F18181481758F59281291726
:1006C00040F59381A62FA91BA7FD23C00A2E000C7D
:1006D000BB0B94819A171B06E1F0DCF0622F0E949D
:1006E0001707480F858190E0BD010E942007242F45
:1006F000269526952695E80FF91FE20FF11D8681B4
:1007000090E0477002C0959587954A95E2F7817011
:10071000089580E00895CF93DF93EC010E94DA0002
:100720009E0150E040E062E17AE780E090E00E94C4
:10073000450730936F0320936E03DF91CF910895A7
:1007400080916C0390916D030E94E90080916C038D
:1007500090916D0320916E0330916F03820F931F70
:1007600090936D0380936C030895692F0C94DD01C1
:1007700041E0611101C040E0692F0C94C7010C9465
:10078000B8037F928F929F92AF92BF92CF92DF92E7
:10079000EF92FF920F931F93CF93DF93762E872EC6
:1007A000B42E7C01C62F660FDD0BC81BD10987FD57
:1007B000D395072F770F110B0F191109F7FC13951C
:1007C000AA24AA94D7FD02C0AA24A39499249A9497
:1007D00017FD02C099249394D7FF03C0D195C1950A
:1007E000D10917FF03C01195019511096E01D59428
:1007F000C794C017D107F4F46801D594C794F814CE
:10080000D9F06B2DC7010E94B803CC1ADD0AD7FEC0
:1008100003C0C00ED11EEA0CF90CF1CF6B2DC7013D
:100820000E94B803C01AD10AD7FE03C0CC0EDD1E49
:10083000F90CEA0CE710F2CF6B2DC701DF91CF91D5
:100840001F910F91FF90EF90DF90CF90BF90AF90EE
:100850009F908F907F900C94B803FF920F931F93FB
:10086000CF93DF93D82FF92E162FC72F042F792F70
:100870000E94C103402F6D2F7C2F8D2F9F2D0E9432
:10088000C103402F612F7C2F812F9F2D0E94C10318
:10089000402F612F7C2F8D2F9C2FDF91CF911F91A7
:1008A0000F91FF900C94C1030E940502E1E0F1E07A
:1008B000118A14860895DF92EF92FF920F931F938F
:1008C000CF93DF93D82E7B01162F0F2D809103013C
:1008D00090910401C0E0019751F11E2D1C0FE09191
:1008E0000901F0910A018181C81708F45CC0C0E0D9
:1008F000E0910901F0910A018281C81708F455C0FE
:100900001F5F27C02D2F4C2F6D2D0E945803682F7D
:100910008E2D8D0F902F0E94B803DF5F809109010B
:1009200090910A01FC012281D21760F3CF5F0F2D55
:100930000C1BE0910901F0910A018181C81798F020
:10094000C0E0E0910901F0910A018281C81768F0C6
:100950000150812F902FDF91CF911F910F91FF9028
:10096000EF90DF900895D0E0D9CF60E08E2D8C0F0E
:10097000902F0E94B803CF5FE4CF2D2F4C2F6D2D09
:100980000E945803682F812F9F2D9D0F0E94B8034E
:10099000DF5F8091090190910A01FC012281D21749
:1009A00060F3CF5F9ACFD0E0F4CF60E0812F9F2D2E
:1009B0009C0F0E94B803CF5F9BCF0F931F93CF93E1
:1009C0008C01C0E0F80181918F01882341F00E94E1
:1009D0005B04BC01CF5F853014F477FFF3CF8C2F1D
:1009E000CF911F910F9108950F931F93CF93DF9392
:1009F0008C019B0110920D0140930E011092110188
:100A0000C0910901D0910A01209709F444C089815D
:100A1000609107017091080190E00E942007BC01DD
:100A200080910B0190910C010E943107CB016AE08B
:100A300070E00E9420079093100180930F01309383
:100A400006012093050140E250E0B80182E191E007
:100A50000E94860780910101909102010197D9F4CB
:100A6000F80101900020E9F73197BF01601B710B7D
:100A700089818F5F0E941707815020910301309177
:100A8000040195E02130310509F497E0981718F436
:100A90008EEF80931101DF91CF911F910F910895F7
:100AA000209103013091040170E02130310509F4F7
:100AB00076E04FEF60E00C94F40490E0909308012E
:100AC0008093070108959093020180930101089596
:100AD0009093040180930301089590930A018093F9
:100AE000090108958091700390917103019690938C
:100AF00071038093700320910F01309110018217D0
:100B0000930708F441C01092710310927003E091B2
:100B10000D01F0E0EF5FFE4F8189811109C08091E6
:100B20000E01823088F1815080930E0110920D01E8
:100B300080910D0190E0FC01EF5FFE4F218922239F
:100B400019F12091110140910101509102014115CB
:100B50005105E1F04130510551F1809111018F5F54
:100B600080931101082E000C990BE0910901F0917E
:100B70000A012181281719063CF410921101809175
:100B80000D018F5F80930D010C94F1012111E5CFD0
:100B900060910501709106018E5E9E4F0E94DD04FA
:100BA00090910D019150890F80930D01D6CF6091E6
:100BB00005017091060140910301509104014130FB
:100BC000510531F4720F8E5E9E4F0E94DD04C5CF39
:100BD000621BF9CFCF93DF93C1E0D1E09B878A8777
:100BE0000E940D0284E190E09F838E83DF91CF917C
:100BF0000C945404CF93DF9300D0CDB7DEB7898334
:100C00001A82CE0101960E9450050F900F90DF913D
:100C1000CF9108958235B1F0833559F08035D9F4FC
:100C20006035B1F0633559F06235B9F428E433E04A
:100C300014C06035D9F3633559F0623571F422E49C
:100C400033E00BC06035D9F3633581F3623529F4A5
:100C50002DE433E002C030E020E0C9010895EF92B6
:100C6000FF921F93CF93DF937C01FC011081D0E0B2
:100C7000C0E00E94A0030E9472050E94D90282E097
:100C80000E94A902882339F0F701C230D105E9F4A6
:100C90001281D0E0C0E080E00E94A902882331F0F8
:100CA000F7012097B9F41081C2E0D0E0812F0E94B3
:100CB000FA0584E00E94A9028823D9F2812FDF91EE
:100CC000CF911F91FF90EF900895EC0FFD1F1081C1
:100CD0002196E1CFEC0FFD1F10812197E7CF0C94F7
:100CE00063000E94590081110C945B0080E008951C
:100CF0000E94CA008CE291E00E94EA0587E391E03D
:100D00000E946D0589E10E945D0590E080E00E94EF
:100D100063050E9442030E9475008CE291E00E94EC
:100D20008B030E94A0030E947205809156038111DB
:100D300006C083E593E00E942F06809356038091BE
:100D400056030E94FA0580E50E94FA050E94A0035E
:100D50000E947205809157038111F8CF82E391E0E0
:100D60000E942F06809357030E94A0030E947205E1
:100D70000E94D90280915603813399F580915A03DC
:100D8000882351F1813419F081E40E946F0680912B
:100D90005603813391F5809157030E946F060E949C
:100DA00071068823A1F381E090E00E9463056091C1
:100DB0005A03809157030E940A060E945005C1E021
:100DC000D0E08091580390915903892B39F10E940A
:100DD000A0030E947205F5CF0E94710680935A030A
:100DE000CDCF823349F6809157030E946F060E944F
:100DF0007106882309F4BECFCACF823341F68091B1
:100E00005A03882331F0813471F281E40E946F0625
:100E1000CACF0E94710680935A03F1CF8091570385
:100E20000E946F06D0935903C0935803CACF002481
:100E300080FD060E660F11F08695D1F7802D08957E
:100E40000024552704C0080E591F880F991F0097CA
:100E500029F076956795B8F37105B9F7802D952F30
:100E60000895AA1BBB1B51E107C0AA1FBB1FA617F1
:100E7000B70710F0A61BB70B881F991F5A95A9F743
:100E800080959095BC01CD010895052E97FB1EF429
:100E900000940E945C0757FD07D00E94640707FC7E
:100EA00003D04EF40C945C075095409530952195F5
:100EB0003F4F4F4F5F4F0895909580957095619586
:100EC0007F4F8F4F9F4F0895A1E21A2EAA1BBB1B85
:100ED000FD010DC0AA1FBB1FEE1FFF1FA217B30706
:100EE000E407F50720F0A21BB30BE40BF50B661F1C
:100EF000771F881F991F1A9469F7609570958095E0
:100F000090959B01AC01BD01CF010895FB01DC016F
:100F10004150504048F001900D920020C9F701C0A7
:0E0F20001D9241505040E0F70895F894FFCF25
:100F2E00010000000000001400000000000000009E
:100F3E0000000000000000000000000000000000A3
:100F4E000000000000000000000000000000000093
:100F5E0000005053520000010507205F05000000FD
:100F6E000000C6186380014A290000004A7DF595ED
:100F7E0002C417471F01632222320626155193051C
:100F8E0086080000008808210802822084880080DC
:100F9E005457090080904F080000006088000080C0
:100FAE000F00000000008C0100222202002EE63A03
:100FBE00A303C4104288032E4244C4072E4207A343
:100FCE000388A9F411023F8407A3032E8617A303F7
:100FDE003F424408012E4617A3032E460FA303C01B
:100FEE0018600C00C0186088008888200802007CF9
:100FFE00F0010082208888002E424400012E425BC0
:10100E00AB0344C51F63042FC617E3032E8610A23D
:10101E00032FC618E3033F8417C2073F841742000D
:10102E002E861EA30731C61F63048E10428803103E
:10103E004218A3033195515204218410C20771D76F
:10104E001A630471D61C63042EC618A3032FC61789
:10105E0042002EC65893052FC61763042E0607A30B
:10106E00039F1042080131C618A30331C61815019B
:10107E0031C65AAB02312AA26204312A4208011F3C
:10108E002222C207278410C20120088220000E21CE
:10109E008490034445000000000000C00782200039
:1010AE0000000038E8A30721B419E30300B810A22A
:1010BE000310DA1CA30700B8F883034C8A238400BC
:1010CE00C0C7E8A10321B4196304041842880308B9
:1010DE003084920121A4324A02861042880300AC69
:1010EE005A630400B419630400B818A30300BCF8D3
:1010FE00420000D8EC210400B419420000B8E0E030
:10110E0003421C21240300C418B30500C4181501A2
:10111E0000C45AAB02004445540400C4E8A10300C5
:10112E007C44C407881041080284104208018210D2
:10113E0044880000888A0000D00008000306080AD0
:10114E0003400080031003800320004000200010A5
:10115E000008000400020001038003400320008009
:10116E0003104C6F7373000057696E000044726178
:06117E0077000031320091
:00000001FF
