:100000000C943A000C9457000C9457000C94570031
:100010000C9457000C9457000C9457000C94570004
:100020000C9457000C9457000C9457000C945700F4
:100030000C9457000C9457000C9457000C945700E4
:100040000C9457000C9457000C9457000C945700D4
:100050000C9457000C9457000C9457000C945700C4
:100060000C9457000C9457000C9457000C945700B4
:100070000C94570011241FBECFEFD4E0DEBFCDBFDC
:1000800013E0A0E0B1E0EAE9FDE002C005900D92C6
:10009000A234B107D9F723E0A2E4B3E001C01D9276
:1000A000A935B207E1F70E940A060C94CB060C941E
:1000B0000000CF93DF9300D0CDB7DEB789831A82DB
:1000C000CE0101960E9460050F900F90DF91CF91B5
:1000D00008950C94A3010C94C4010C94A9010C94F0
:1000E000AF010C94B5010E94B5010E94AF018823B5
:1000F000E1F38CE291E00197F1F70E94A3018111F5
:100100000C946B0008950C94CB01CF93DF9300D037
:100110001F92CDB7DEB78091180390911903A0917B
:100120001A0389839A83AB83509A589A0E94760166
:100130008FE690E00E940D0181E090E00E94650151
:1001400061E070E081E090E00E9452010E943E0177
:10015000CE0101960E948B010F900F900F90DF91BE
:10016000CF910895CF93DF93DC01FB0160E080E045
:10017000C1E0D0E0841305C0F9016083DF91CF9125
:1001800008959191BE01092E02C0660F771F0A944F
:10019000E2F76F5F7F4F769567956A0F7B1F02C00E
:1001A000769567959A95E2F76F3F710529F320F3ED
:1001B0008F5FE0CFE1E6F0E080E880831082A895D1
:1001C00084B7877F84BFE0E6F0E080818861808328
:1001D000108208951092800084E080938100109234
:1001E000850010928400089580918400909185008C
:1001F0000895AC0180918400909185009C01241B9E
:10020000350B283E3340B0F708952091840030919B
:100210008500820F931F0C94F900CF93DF931F92F8
:10022000CDB7DEB79E012F5F3F4F45E06BE173E036
:100230000E94B20091E0980F909300019981915033
:1002400097BD18BC95B5977039F025B59091000110
:100250009770287F922B95BD298130E0E82FF0E040
:10026000E55EFC4F8081A90102C0440F551F8A95AD
:10027000E2F7CA010F90DF91CF91089585B3897F8E
:1002800085BB95B5809100018770987F892B85BDCE
:10029000089585B5887F85BD089585B382FB88273D
:1002A00080F90895009719F0019751F0089584B5E9
:1002B0008F736295660F660F607C682B64BD08952E
:1002C00084B5629560738F7CF8CF009721F0019719
:1002D00039F080E0089584B58C7F84BD81E0089575
:1002E00084B58E7F84BD84B58260F7CF14BC15BC05
:1002F00016BC18BC84B58E7F84BD84B5826084BD75
:1003000081E008959C01215031093093CD00815046
:100310008093CC000895CF93DF93EC01888199817D
:100320000E9482018A819BEF980F943008F088E048
:1003300098E19093C9008550880F8093CA0081E0AE
:10034000DF91CF9108958091C800881F8827881F6A
:1003500008958091C80085FB882780F908958091D1
:10036000C80086FB882780F90895CF93C82F0E9484
:10037000A9018823E1F38091C80080648093C800BC
:10038000C093CE00CF9108958091C80087FFFCCF25
:100390008091CE000895CF93DF93EC018991811174
:1003A00003C0DF91CF9108950E94B501F7CF85304A
:1003B00098F4673088F421E030E001C0220F6A959C
:1003C000EAF7E82FF0E0ED5BFC4F822F80959081FB
:1003D00089234111822B80830895853080F4673012
:1003E00070F4E82FF0E0ED5BFC4F81E090E001C09D
:1003F000880F6A95EAF79081982381E009F480E0FC
:10040000089560914203E62FF0E0ED5BFC4F8081A0
:100410000E944F02809142038F5F853018F48093D1
:1004200042030895109242030895E3E4F3E010823A
:10043000118212821382148208950E942D020C945C
:1004400015029C01FC01FF2784A1832B84A395A1A5
:10045000892F832B85A381E00895CF93DF93CAE290
:10046000D3E0899199910E94210283E0C833D80793
:10047000C1F783E090E40E94210280E090E80E94AE
:10048000210283E090E10E94210283E090E80E9433
:10049000210283E090E2DF91CF910C942102E09160
:1004A0004803F0E0EE0FFF1FE05EFC4F208131813A
:1004B000F901FF2795A1932B95A3AAE2B3E02D9113
:1004C0003D91F901FF2780FF1CC025A1932F909536
:1004D000922395A3869593E0A833B90781F7E62F79
:1004E000F0E0EE0FFF1FE05EFC4F20813181F9014B
:1004F000FF2795A1832F8095892385A360934803C7
:10050000089595A1932BE5CF6230710559F128F438
:1005100061307105E1F080E008956330710559F0B4
:1005200064307105C1F7FC01FF2784A1892B84A3E6
:1005300085A1892B09C0FC01FF2784A1892B84A3F5
:1005400025A1892F8095822385A381E00895FC0150
:10055000FF2724A1892F8095922F982394A395A1FA
:100560008923F2CFFC01FF2724A1892F80958223C4
:10057000DECFE82FF0E0EE0FFF1FE75BFC4F80813E
:10058000882329F0818191E089278170089580E096
:10059000FCCFE82FF0E0EE0FFF1FE75BFC4F808100
:1005A000811103C081818170089580E0FCCFE82F24
:1005B000F0E0EE0FFF1FE75BFC4F80810895E82F0E
:1005C000F0E0EE0FFF1FE75BFC4F908181E0892791
:1005D00008957F928F929F92AF92BF92CF92DF92B7
:1005E000EF92FF920F931F93CF93DF93C9E4D3E071
:1005F00058E3C52E53E0D52E66E0762E8881898398
:10060000F601019111916F015801BB24F50124A15C
:10061000E12EFF2485A190E08E219F2130E02E2144
:100620003F21232BB1F133E0832E912C892B19F03C
:1006300094E0892E912C64E070E0C8010E9484024D
:1006400062E070E0C8010E948402872D8A95F1F76C
:10065000F50183A190E0E822F92281E0EF2809F07A
:1006600080E08883B401C8010E9484022296F3E0EE
:10067000C335DF0719F6DF91CF911F910F91FF90DE
:10068000EF90DF90CF90BF90AF909F908F907F9032
:10069000089588248394912C892B69F282E0882E16
:1006A000912CC9CF0895009789F0FC012381621B2A
:1006B00067FD09C0062E000C770B948181E0961728
:1006C000170609F00CF480E08170089580E0089529
:1006D000FC01892B71F18181481758F59281291706
:1006E00040F59381A62FA91BA7FD23C00A2E000C5D
:1006F000BB0B94819A171B06E1F0DCF0622F0E947D
:100700004D06480F858190E0BD010E945606242FBA
:10071000269526952695E80FF91FE20FF11D868193
:1007200090E0477002C0959587954A95E2F78170F1
:10073000089580E00895CF93DF93EC010E94EA00D2
:100740009E0150E040E062E17AE780E090E00E94A4
:100750007B063093560320935503DF91CF91089584
:1007600080915303909154030E94F90080915303A8
:10077000909154032091550330915603820F931F9B
:1007800090935403809353030895692F0C94ED01C3
:1007900041E0611101C040E0692F0C94D7010C9435
:1007A000C8037F928F929F92AF92BF92CF92DF92B7
:1007B000EF92FF920F931F93CF93DF93762E872EA6
:1007C000B42E7C01C62F660FDD0BC81BD10987FD37
:1007D000D395072F770F110B0F191109F7FC1395FC
:1007E000AA24AA94D7FD02C0AA24A39499249A9477
:1007F00017FD02C099249394D7FF03C0D195C195EA
:10080000D10917FF03C01195019511096E01D59407
:10081000C794C017D107F4F46801D594C794F814AD
:10082000D9F06B2DC7010E94C803CC1ADD0AD7FE90
:1008300003C0C00ED11EEA0CF90CF1CF6B2DC7011D
:100840000E94C803C01AD10AD7FE03C0CC0EDD1E19
:10085000F90CEA0CE710F2CF6B2DC701DF91CF91B5
:100860001F910F91FF90EF90DF90CF90BF90AF90CE
:100870009F908F907F900C94C803FF920F931F93CB
:10088000CF93DF93D82FF92E162FC72F042F792F50
:100890000E94D103402F6D2F7C2F8D2F9F2D0E9402
:1008A000D103402F612F7C2F812F9F2D0E94D103D8
:1008B000402F612F7C2F8D2F9C2FDF91CF911F9187
:1008C0000F91FF900C94D1030E941502E1E0F1E03A
:1008D000118A14860895DF92EF92FF920F931F936F
:1008E000CF93DF93D82E7B01162F0F2D809103011C
:1008F00090910401C0E0019751F11E2D1C0FE09171
:100900000901F0910A018181C81708F45CC0C0E0B8
:10091000E0910901F0910A018281C81708F455C0DD
:100920001F5F27C02D2F4C2F6D2D0E946803682F4D
:100930008E2D8D0F902F0E94C803DF5F80910901DB
:1009400090910A01FC012281D21760F3CF5F0F2D35
:100950000C1BE0910901F0910A018181C81798F000
:10096000C0E0E0910901F0910A018281C81768F0A6
:100970000150812F902FDF91CF911F910F91FF9008
:10098000EF90DF900895D0E0D9CF60E08E2D8C0FEE
:10099000902F0E94C803CF5FE4CF2D2F4C2F6D2DD9
:1009A0000E946803682F812F9F2D9D0F0E94C8030E
:1009B000DF5F8091090190910A01FC012281D21729
:1009C00060F3CF5F9ACFD0E0F4CF60E0812F9F2D0E
:1009D0009C0F0E94C803CF5F9BCF0F931F93CF93B1
:1009E0008C01C0E0F80181918F01882341F00E94C1
:1009F0006B04BC01CF5F853014F477FFF3CF8C2FED
:100A0000CF911F910F9108950F931F93CF93DF9371
:100A10008C019B0110920D0140930E011092110167
:100A2000C0910901D0910A01209709F444C089813D
:100A3000609107017091080190E00E945606BC0188
:100A400080910B0190910C010E946706CB016AE036
:100A500070E00E9456069093100180930F0130932E
:100A600006012093050140E250E0B80182E191E0E7
:100A70000E94BC0680910101909102010197D9F476
:100A8000F80101900020E9F73197BF01601B710B5D
:100A900089818F5F0E944D06815020910301309122
:100AA000040195E02130310509F497E0981718F416
:100AB0008EEF80931101DF91CF911F910F910895D7
:100AC000209103013091040170E02130310509F4D7
:100AD00076E04FEF60E00C94040590E090930801FD
:100AE0008093070108959093020180930101089576
:100AF0009093040180930301089590930A018093D9
:100B0000090108958091570390915803019690939D
:100B100058038093570320910F01309110018217E1
:100B2000930708F441C01092580310925703E091C4
:100B30000D01F0E0EF5FFE4F8189811109C08091C6
:100B40000E01823088F1815080930E0110920D01C8
:100B500080910D0190E0FC01EF5FFE4F218922237F
:100B600019F12091110140910101509102014115AB
:100B70005105E1F04130510551F1809111018F5F34
:100B800080931101082E000C990BE0910901F0915E
:100B90000A012181281719063CF410921101809155
:100BA0000D018F5F80930D010C9401022111E5CF9F
:100BB00060910501709106018E5E9E4F0E94ED04CA
:100BC00090910D019150890F80930D01D6CF6091C6
:100BD00005017091060140910301509104014130DB
:100BE000510531F4720F8E5E9E4F0E94ED04C5CF09
:100BF000621BF9CFCF93DF93C1E0D1E09B878A8757
:100C00000E941D0284E190E09F838E83DF91CF914B
:100C10000C9464040E94DA0084EF91E00E94FA05CB
:100C200087E391E00E947D058AE00E946D050E94A5
:100C300052030E94850084EF91E00E949B03D0E064
:100C4000C0E010E50E94B0030E9482050E94E90204
:100C500080E00E94B902882341F0C330D105ACF492
:100C6000FE01EE5CFE4F1081219682E00E94B902E7
:100C7000882339F0209769F0FE01EE5CFE4F108169
:100C80002197812F0E945900DDCFD0E0C0E010E510
:100C9000ECCFC2E0D0E012E5F4CF002480FD060ED8
:100CA000660F11F08695D1F7802D08950024552701
:100CB00004C0080E591F880F991F009729F07695D8
:100CC0006795B8F37105B9F7802D952F0895AA1B84
:100CD000BB1B51E107C0AA1FBB1FA617B70710F027
:100CE000A61BB70B881F991F5A95A9F78095909559
:100CF000BC01CD010895052E97FB1EF400940E94BF
:100D0000920657FD07D00E949A0607FC03D04EF4C6
:100D10000C94920650954095309521953F4F4F4F3A
:100D20005F4F089590958095709561957F4F8F4F97
:100D30009F4F0895A1E21A2EAA1BBB1BFD010DC0F7
:100D4000AA1FBB1FEE1FFF1FA217B307E407F5077B
:100D500020F0A21BB30BE40BF50B661F771F881F57
:100D6000991F1A9469F760957095809590959B01ED
:100D7000AC01BD01CF010895FB01DC0141505040A1
:100D800048F001900D920020C9F701C01D9241501A
:0A0D90005040E0F70895F894FFCFFB
:100D9A000100000000000014000000000000000034
:100DAA000000000000000000000000000000000039
:100DBA000000000000000000000000000000000029
:100DCA0000005053520000010507205F0500000093
:100DDA000000C6186380014A290000004A7DF59583
:100DEA0002C417471F0163222232062615519305B2
:100DFA008608000000880821080282208488008072
:100E0A005457090080904F08000000608800008055
:100E1A000F00000000008C0100222202002EE63A98
:100E2A00A303C4104288032E4244C4072E4207A3D8
:100E3A000388A9F411023F8407A3032E8617A3038C
:100E4A003F424408012E4617A3032E460FA303C0B0
:100E5A0018600C00C0186088008888200802007C8E
:100E6A00F0010082208888002E424400012E425B55
:100E7A00AB0344C51F63042FC617E3032E8610A2D3
:100E8A00032FC618E3033F8417C2073F84174200A3
:100E9A002E861EA30731C61F63048E1042880310D4
:100EAA004218A3033195515204218410C20771D705
:100EBA001A630471D61C63042EC618A3032FC6171F
:100ECA0042002EC65893052FC61763042E0607A3A1
:100EDA00039F1042080131C618A30331C618150131
:100EEA0031C65AAB02312AA26204312A4208011FD2
:100EFA002222C207278410C20120088220000E2164
:100F0A008490034445000000000000C007822000CE
:100F1A0000000038E8A30721B419E30300B810A2BF
:100F2A000310DA1CA30700B8F883034C8A23840051
:100F3A00C0C7E8A10321B41963040418428803084E
:100F4A003084920121A4324A02861042880300ACFE
:100F5A005A630400B419630400B818A30300BCF868
:100F6A00420000D8EC210400B419420000B8E0E0C5
:100F7A0003421C21240300C418B30500C418150138
:100F8A0000C45AAB02004445540400C4E8A103005B
:100F9A007C44C40788104108028410420801821068
:100FAA0044880000888A0000D00008000306080A66
:100FBA00034000800310038003200040002000103B
:100FCA00000800040002000103800340032000809F
:020FDA00031002
:00000001FF
